:100000000C9403010C942D010C942D010C942D01E2
:100010000C942D010C942D010C942D010C942D01A8
:100020000C942D010C942D010C942D010C942D0198
:100030000C942D010C942D010C942D010C942D0188
:100040000C942D010C9468070C942D010C942D0137
:100050000C942D010C942D010C942D010C949406FC
:100060000C942D010C942D010C942D010C942D0158
:100070000C942D010C942D010C942D010C942D0148
:100080000C943A070C942D010C942D010C942D0125
:100090000C942D010C942D010C942D010C942D0128
:1000A0000C942D010C942D010C940C070C942D0133
:1000B0000C942D010C942D010C942D010C94DE0652
:1000C0000C942D010C942D010C942D010C942D01F8
:1000D0000C942D010C942D010C942D010C942D01E8
:1000E0000C942D0100002100240027002A002D007F
:1000F0003000330001010000040107010A01000083
:100100002200250028002B002E00310034000201BF
:100110000000050108010B0100002000230026005B
:1001200029002C002F00320000010000030106010D
:10013000090105050505070508080808020202026D
:100140000A0A080804040404010101010101010173
:100150000303030303030303040707070C0C0C0C3E
:100160000C0C0C0C02020202060606060606060627
:100170000B0B0B0B0B0B0B0B0102102020080810B4
:100180002040102040800201020108040201010207
:1001900004081020408080402010080402018004E0
:1001A000020180402010080402010804020101023B
:1001B0000408102040800102040810204080000044
:1001C0000A0B02090C0D0E080703040100000000D1
:1001D000000000000000000000000000000000001F
:1001E00000000000000000000000121110000000DC
:1001F00000000000000000000000000000000000FF
:1002000000000000EE0A11241FBECFEFD1E2DEBFD6
:10021000CDBF12E0A0E0B2E0E4E8FBE100E00BBFFC
:1002200002C007900D92A837B107D9F723E0A8E7DD
:10023000B2E001C01D92AA3AB207E1F711E0C3E0B3
:10024000D1E004C02197FE010E94A30DC230D10766
:10025000C9F70E9496070C94C00D0C940000CF9231
:10026000DF92EF92FF92DC01A03282E0B807D4F572
:10027000A53BB10514F0A4EBB0E04091900328E851
:1002800030E0241B310947FD3395220F331F220F25
:10029000331F6901330FEE08FF084091910328E5F1
:1002A00032E0241B310947FD3395220F331F220F03
:1002B000331F032E000C440B550B2C193D094E091E
:1002C0005F09B7FF02C0B0E0A0E00E94AC0B24EBD6
:1002D00030E040E050E00E94820BC20ED31EE41ECC
:1002E000F51ED601E0918F03E03380F52091900355
:1002F00088E890E0821B910927FD9395880F991F4C
:10030000880F991FA817B90784F02091910388E5F9
:1003100092E0821B910927FD9395880F991F880F02
:10032000991FA817B9070CF4CD010297880F991FE0
:100330004FB7F8942E2F30E0F901EE0FFF1FE20FB8
:10034000F31FE150FD4F928381834FBFFF90EF90E9
:10035000DF90CF90089596E0899FD0011124A05797
:10036000BD4F90967C936E935F9791E091969C938E
:100370009197E091FD02F091FE029091FC02992389
:1003800039F0309751F0811108C08091AC02099486
:10039000309719F05C968C91FACF0895CF92DF9246
:1003A000EF92FF920F931F9396E0899FF001112423
:1003B000E057FD4F11A2278D30A12130310551F1B9
:1003C00078F02230310509F451C02330310509F4A9
:1003D00052C01F910F91FF90EF90DF90CF90089542
:1003E0006623B9F361E070E00E94AB012FB7F89487
:1003F00080918C0290918D02A0918E02B0918F021B
:100400002FBF8093E8029093E902A093EA02B09391
:10041000EB02DFCF9FB7F894C0908C02D0908D0292
:10042000E0908E02F0908F029FBF0091E802109141
:10043000E9022091EA023091EB02C01AD10AE20AE5
:10044000F30A0091FA021091FB0230E020E00C1553
:100450001D052E053F0550F462E070E01F910F91DD
:10046000FF90EF90DF90CF900C94AB016111B1CF72
:1004700063E070E0F3CF70E060E0F0CFAF92BF9246
:10048000CF92DF92EF92FF920F931F93CF93DF9360
:100490006C017B018B01040F151FEB015E01AE188F
:1004A000BF08C017D10759F06991D601ED91FC91B1
:1004B0000190F081E02DC6010995892B79F7C501DE
:1004C000DF91CF911F910F91FF90EF90DF90CF9030
:1004D000BF90AF9008958150823108F058C0E82F46
:1004E000F0E0EB58FD4F0C94A30D950299028702A2
:1004F0008D029102C7029C02A202A602AC02B002C7
:10050000B402BA02BE02C702C202C802CC02809183
:1005100080008F77809380000895809180008F7D88
:10052000F9CF80918000877FF5CF84B58F7784BD28
:10053000089584B58F7DFBCF8091B0008F77809335
:10054000B00008958091B0008F7DF9CF8091900028
:100550008F77809390000895809190008F7DF9CFE0
:1005600080919000877FF5CF8091A0008F77809356
:10057000A00008958091A0008F7DF9CF8091A00008
:10058000877FF5CF809120018F7780932001089598
:10059000809120018F7DF9CF80912001877FF5CF59
:1005A000CF93DF93282F30E0F901E254FE4F84917E
:1005B000F901E858FE4FD491F901EE5CFE4FC49169
:1005C000CC23A1F081110E946B02EC2FF0E0EE0F22
:1005D000FF1FE85EFE4FA591B491EC91ED2381E001
:1005E00090E009F480E0DF91CF91089580E090E001
:1005F000FACF862F0C94D0021F93CF93DF93282F2E
:1006000030E0F901E254FE4F8491F901E858FE4FC1
:10061000D491F901EE5CFE4FC491CC23A9F0162FC2
:1006200081110E946B02EC2FF0E0EE0FFF1FE250F1
:10063000FF4FA591B4918FB7F894EC91111108C0B8
:10064000D095DE23DC938FBFDF91CF911F9108956A
:10065000DE2BF8CF862F642F0C94FC02CF93DF9310
:1006600090E0FC01E858FE4F24918E5C9E4FFC0107
:1006700084918823C9F090E0880F991FFC01EC5108
:10068000FF4FA591B491FC01E250FF4FC591D49169
:1006900061110DC09FB7F8948C91209582238C93A3
:1006A0008881282328839FBFDF91CF9108956230EE
:1006B00051F49FB7F8943C91822F809583238C93BB
:1006C000E8812E2BEFCF8FB7F894EC912E2B2C9343
:1006D0008FBFEACF862F642F0C942E03863308F049
:1006E000865390917B00977F90937B008770806406
:1006F00080937C0080917A00806480937A0080915E
:100700007A0086FDFCCF8091780090917900089561
:100710003FB7F8948091800290918102A09182026B
:10072000B091830226B5A89B05C02F3F19F0019612
:10073000A11DB11D3FBFBA2FA92F982F8827BC013B
:10074000CD01620F711D811D911D42E0660F771F63
:10075000881F991F4A95D1F708958F929F92AF9263
:10076000BF92CF92DF92EF92FF924B015C010E9409
:1007700088036B017C010E9488036C197D098E0936
:100780009F09683E734081059105A8F321E0821A14
:100790009108A108B10888EEC80E83E0D81EE11CBC
:1007A000F11C81149104A104B10429F7FF90EF908A
:1007B000DF90CF90BF90AF909F908F900895AF92B1
:1007C000BF92CF92DF92EF92FF920F931F93CF933E
:1007D000DF936B017A01EC01C558DD4F28813CE0C5
:1007E000389F8001399F100D1124A0907A02B12CFE
:1007F00027FF1FC0FB011182108288818F5F8883D1
:1008000088819801280F311D87FD3A95F6012A1538
:100810003B051CF488818C30C4F180819181049661
:1008200080349C4908F473C0F6018081918104965C
:1008300070C088819801280F311D87FD3A952A15CF
:100840003B05DCF68881A801480F511D87FD5A95AC
:10085000FA01EE0FFF1FE40FF51FE150FD4F8081FD
:1008600086FFCBCF8881F801E80FF11D87FDFA954F
:10087000CF01EE0FFF1FE80FF91FE150FD4F808100
:1008800060E08F730E94FC02B8CF80819181288143
:10089000A801420F511D27FD5A959A01FA01EE0F4A
:1008A000FF1FE20FF31FE150FD4F21813281820FC4
:1008B000931FF7019183808388819801280F311D50
:1008C00087FD3A95F901EE0FFF1FE20FF31FE1508C
:1008D000FD4F808186FF22C08881080F111D87FD92
:1008E0001A95F801EE0FFF1FE00FF11FE150FD4FC9
:1008F000808161E08F73DF91CF911F910F91FF9005
:10090000EF90DF90CF90BF90AF900C94FC0280E40A
:100910009CE9F701918380838FEF8883DF91CF91EA
:100920001F910F91FF90EF90DF90CF90BF90AF900D
:100930000895089590E080E008958091880260E035
:10094000811161E08DE00C94FC02CF93DF93109253
:10095000790210927802C0917802D0917902C53B59
:10096000D1057CF4CE010E942F016FE070E080E0A1
:1009700090E00E94AD032196D0937902C093780253
:10098000EACF84EB90E09093790280937802C09153
:100990007802D0917902D7FD0FC0CE010E942F01BD
:1009A0006FE070E080E090E00E94AD032197D0936B
:1009B0007902C0937802EBCFDF91CF910895FC01CB
:1009C00001900020E9F73197AF01481B590BBC019A
:1009D00082E993E00C943E02CF93DF93EC0160E058
:1009E0008E810E94FC0261E08E810E94FC0260E028
:1009F0008E810E94FC028BE891E00197F1F7DF9174
:100A0000CF910895CF92DF92EF92FF920F931F93B1
:100A1000CF93DF936C017C0187E0E80EF11CD0E0FE
:100A2000C0E0062F10E0B8010C2E02C07595679546
:100A30000A94E2F76170F70181917F010E94FC0244
:100A40002196C430D10579F7C601DF91CF911F916E
:100A50000F91FF90EF90DF90CF900C94EC04CF9229
:100A6000DF92EF92FF920F931F93CF93DF93EC01EE
:100A7000F62E642F8C810E94FC028D818F3F19F02D
:100A800060E00E94FC020F2D10E08F8584FF25C0DE
:100A90006E0187E0C80ED11CF12CE12CB8010E2CA0
:100AA00002C0759567950A94E2F76170F60181912D
:100AB0006F010E94FC02FFEFEF1AFF0A88E0E816C0
:100AC000F10461F7CE01DF91CF911F910F91FF905B
:100AD000EF90DF90CF900C94EC04B80184E0759512
:100AE00067958A95E1F7CE010E9402056F2DCE0130
:100AF000DF91CF911F910F91FF90EF90DF90CF90FA
:100B00000C94020540E0682F82E993E00C942F05D5
:100B100081E00E9482058BE39FE10197F1F7089540
:100B2000CF93DF93823029F49091A1039860909342
:100B3000A1038093A5031092A60380E48093A703EA
:100B400080E18093A80380E58093A90361E0809110
:100B500096030E942E03809197038F3F19F061E066
:100B60000E942E0361E0809198030E942E03C2E947
:100B7000D3E09E01225933408091A10384FD0BC034
:100B800084E090E021962817390744F461E08E81D3
:100B90000E942E03EECF88E090E0F4CF8BE39DE03F
:100BA0000197F1F760E0809196030E94FC0260E0FB
:100BB000809198030E94FC02809197038F3F19F067
:100BC00060E00E94FC028091A10384FD34C063E0D8
:100BD00082E993E00E940205CBE4D6E4CE010197BE
:100BE000F1F763E082E993E00E9402052197F1F7B3
:100BF00063E082E993E00E94020583E592E00197B9
:100C0000F1F762E082E993E00E9402058091A1037E
:100C100080620E94820584E08093A2038CE00E949F
:100C200082050E94880582E08093A30386E0DF911D
:100C3000CF910C94820580620E9482058BE496E439
:100C40000197F1F78091A10380620E94820583E5FC
:100C500092E00197F1F78091A10380620E948205E2
:100C6000D5CF9091A503691710F06FEF690FE62FAC
:100C7000F0E0EE56FC4F9489890F80680C94820551
:100C8000CF93DF93C8E7D2E060E088810E9431060D
:100C900088E392E00E94DF0461E088810E943106CF
:100CA00089E492E00E94DF0460ED77E080E090E06C
:100CB0000E94AD030E94880560E088810E94310691
:100CC00087E592E00E94DF0461E088810E9431069E
:100CD00081E692E00E94DF0460ED77E080E090E042
:100CE0000E94AD030E94880560E088810E94310661
:100CF00081E792E00E94DF0461E088810E94310672
:100D000087E792E00E94DF0460ED77E080E090E00A
:100D10000E94AD03DF91CF910C94880541E00E94C1
:100D20002F0581E090E008951F920F920FB60F9269
:100D300011242F933F938F939F93AF93BF938091F1
:100D40008C0290918D02A0918E02B0918F02309111
:100D50007F0223E0230F2D3758F50196A11DB11D09
:100D600020937F0280938C0290938D02A0938E0239
:100D7000B0938F028091800290918102A0918202B3
:100D8000B09183020196A11DB11D809380029093C2
:100D90008102A0938202B0938302BF91AF919F9191
:100DA0008F913F912F910F900FBE0F901F9018952C
:100DB00026E8230F0296A11DB11DD2CF1F920F92DC
:100DC0000FB60F9211240BB60F922F933F934F93B0
:100DD0005F936F937F938F939F93AF93BF93EF93A3
:100DE000FF9348E251E064E271E090E080E00E940D
:100DF000DF03FF91EF91BF91AF919F918F917F9111
:100E00006F915F914F913F912F910F900BBE0F907B
:100E10000FBE0F901F9018951F920F920FB60F9252
:100E200011240BB60F922F933F934F935F936F93C1
:100E30007F938F939F93AF93BF93EF93FF9348EA72
:100E400050E064EA70E083E090E00E94DF03FF91ED
:100E5000EF91BF91AF919F918F917F916F915F9132
:100E60004F913F912F910F900BBE0F900FBE0F909F
:100E70001F9018951F920F920FB60F9211240BB668
:100E80000F922F933F934F935F936F937F938F9323
:100E90009F93AF93BF93EF93FF9348E950E064E9CA
:100EA00070E082E090E00E94DF03FF91EF91BF913C
:100EB000AF919F918F917F916F915F914F913F91F2
:100EC0002F910F900BBE0F900FBE0F901F90189593
:100ED0001F920F920FB60F9211240BB60F922F9301
:100EE0003F934F935F936F937F938F939F93AF93B2
:100EF000BF93EF93FF9348E850E064E870E081E02F
:100F000090E00E94DF03FF91EF91BF91AF919F911D
:100F10008F917F916F915F914F913F912F910F90A2
:100F20000BBE0F900FBE0F901F901895789484B54C
:100F3000826084BD84B5816084BD85B5826085BDD5
:100F400085B5816085BD80916E00816080936E0063
:100F50001092810080918100826080938100809155
:100F60008100816080938100809180008160809306
:100F700080008091B10084608093B1008091B000C6
:100F800081608093B0008091910082608093910095
:100F900080919100816080939100809190008160A8
:100FA000809390008091A10082608093A100809145
:100FB000A10081608093A1008091A0008160809356
:100FC000A000809121018260809321018091210104
:100FD00081608093210180912001816080932001B4
:100FE00080917A00846080937A0080917A00826098
:100FF00080937A0080917A00816080937A0080915A
:101000007A00806880937A001092C10082E00E948A
:10101000900580918F03803308F052C061E089E031
:101020000E942E0380918F03282F30E0F901EE0FEC
:10103000FF1FE20FF31FE150FD4F9081907C9960FC
:10104000908310929003109291032CE0622F0E94E3
:10105000830D829FB001112430E020E0AB01420FEC
:10106000531FFA01EE0FFF1FE40FF51FE150FD4F74
:10107000908196FD17C02F5F3F4F2C30310571F7DF
:10108000813009F083C01092800082E0809381005B
:101090001092850010928400B19A80916F00826056
:1010A00080936F00E0918F038E2F90E0FC01EE0F94
:1010B000FF1FE80FF91FE150FD4F8081806480839E
:1010C00061E08DE00E942E0361E08BE00E942E0320
:1010D00061E08AE00E942E0361E088E00E942E0316
:1010E00061E08CE00E942E0361E08EE00E942E03FE
:1010F000412C512C320143946AE0262E312C01E020
:101100004DE2842E80918A0290918B02892B41F4CA
:101110000E94400621E030E030938B0220938A0247
:101120000093FC028FB7F89440918C0250918D028D
:1011300060918E0270918F028FBF8091EC0290912E
:10114000ED02A091EE02B091EF02481B590B6A0B21
:101150007B0B8091F8029091F902B0E0A0E0841737
:101160009507A607B70708F0E6C1C0E08091F60230
:10117000C817C0F5E091F202F091F302EC0FF11DF7
:1011800062E080810E942E03CF5FF0CF823061F455
:10119000109290008093910010929500109294000C
:1011A00088BB809371007ECF833069F41092A000D9
:1011B00082E08093A1001092A5001092A40089BB48
:1011C000809372006FCF81116DCF1092200182E069
:1011D0008093210110922501109224018ABB8093F3
:1011E000730060CF10E08091F702181708F05FC01D
:1011F000E12EF12CE091F402F091F502EE0DFF1DCD
:1012000061E080810E942E03E091F402F091F502EA
:10121000EE0DFF1D60E080810E94FC02D301C2013F
:10122000012E04C0880F991FAA1FBB1F0A94D2F772
:101230005C016C01C094D094912C8091F6029816B8
:10124000F8F4C92DD0E0E091F202F091F302EC0F36
:10125000FD1F80810E94D0022496CC0FDD1FC05755
:10126000DD4F892B41F4888199818A299B299983B3
:1012700088839394E2CF888199818C219D21F7CF37
:10128000E091F402F091F502EE0DFF1D61E0808126
:101290000E94FC028091F4029091F502E80EF91E82
:1012A00060E0F70180810E942E031F5F9CCFC0E9A0
:1012B000D2E07E01F701878D90A1892B31F4148E45
:1012C0002FEF3FEF368F258F11A236E0E30EF11C92
:1012D0005CECE51652E0F50669F710E08091F60245
:1012E000181708F053C0D12C812F90E0880F991F58
:1012F000FC01E856FD4F5F012091F702D21608F07D
:1013000043C0F501608171810D2C02C0769567950F
:101310000A94E2F7129F900111242D0D311DE0E98E
:10132000F2E080E0458D568D2417350709F454C14D
:101330008F5F36968A30B1F760FF24C0E0E9F2E0B3
:1013400090E080E0448D411118C0E091F002F091EE
:10135000F102E20FF31F408156E0589FF001599FC0
:10136000F00D1124E057FD4F448F368F258F10A2CA
:10137000178E61E00E94CE0105C0019636968A3034
:10138000910501F7D394B8CF1F5FA8CF80E099A152
:101390009111892F2696EC16FD06C9F79FB7F89490
:1013A00040918C0250918D0260918E0270918F025B
:1013B0009FBF4093EC025093ED026093EE02709356
:1013C000EF02882309F4B7C08091B102882309F4A1
:1013D000B2C08091AF029091B002019709F0ABC00A
:1013E0001091AC021111ABC08091890281110E9451
:1013F000A504113309F0DDC00E949D04009388020A
:1014000068EE73E080E090E00E94AD0380E00E940F
:101410006E03BC01990F880B990B0E948A0C25E37F
:101420003EE54AEF5EE30E94160D20E030E848E812
:1014300053E40E94E50B0E94520C70938702609364
:10144000860277FFBCC044275527461B570B509395
:1014500087024093860280921A02809186029091C0
:101460008702843691051CF021E320931A02B10112
:101470000E948F0D282FCB01B1010E948F0D805D3E
:1014800080931B02205D20931C028FED80931F022E
:1014900060E080E00E94310683E192E00E94DF0478
:1014A00061E085E00E94310680918802882331F056
:1014B0000E949D04143311F41092880280918602D8
:1014C000909187020996C19708F47DC061E08BE096
:1014D0000E94FC0261E08CE00E94FC0262E370E08A
:1014E00080E090E00E94AD0360E08BE00E94FC028F
:1014F00060E08CE00E94FC0262E370E080E090E03B
:101500000E94AD0387E30E946E03EC0162E370E08A
:1015100080E090E00E94AD0361E02A970CF060E06B
:101520008AE00E94FC02E0E0F0E0EF2B09F4EACD53
:101530000E940000E4CD1092FC0210E055CF1A3258
:1015400011F40E9440068EE00E94D002EC0181E07E
:10155000209709F480E0809385026AE070E080E0E3
:1015600090E00E94AD03CD2B61F080918402811147
:1015700008C061E088E00E94FC020093840210929F
:10158000850280918502882361F0809184028823FE
:1015900041F060E088E00E94FC0210928402109208
:1015A0008502133309F020CF009389020E94A5041D
:1015B0001BCF163309F024CF1092890221CF80E28D
:1015C00080931A024ACF60E08BE00E94FC0260E048
:1015D0008CE00E94FC0296CF6170CCCECF9310922B
:1015E00095031092940380E392E090939303809389
:1015F000920387E080939603CFEFC093970386E032
:101600008093980385E08093990384E080939A0304
:1016100083E080939B0382E080939C0310929D0360
:1016200010929E0310929F031092A0031092A103A8
:1016300081E00E94900580917A02803308F05FC0BB
:1016400091E0980F90937A0280938F0390E0FC01D1
:10165000EE0FFF1FE80FF91FE150FD4F88EB9BE0F5
:1016600092838183109292021092960210929502B8
:101670001092970286E292E09093910280939002FA
:10168000ECEAF2E01082148213821582369682E030
:10169000E83EF807B9F783E092E09093F302809375
:1016A000F20280E092E09093F5028093F40284E0ED
:1016B0008093F60283E08093F70287E092E09093B4
:1016C000F1028093F0028AE090E09093F902809317
:1016D000F80284EF91E09093FB028093FA0210925B
:1016E000FE021092FD021092EC021092ED02109296
:1016F000EE021092EF021092FC02CF910895C09377
:101700008F03B0CF052E97FB1EF400940E94990B17
:1017100057FD07D00E94B40B07FC03D04EF40C9485
:10172000990B50954095309521953F4F4F4F5F4F06
:10173000089590958095709561957F4F8F4F9F4F3D
:1017400008950E94D60BA59F900DB49F900DA49F65
:10175000800D911D11240895B7FF0C94A10B0E94D8
:10176000A10B821B930B0895A1E21A2EAA1BBB1B8F
:10177000FD010DC0AA1FBB1FEE1FFF1FA217B3075D
:10178000E407F50720F0A21BB30BE40BF50B661F73
:10179000771F881F991F1A9469F760957095809537
:1017A00090959B01AC01BD01CF010895A29FB001AE
:1017B000B39FC001A39F700D811D1124911DB29F85
:1017C000700D811D1124911D08955058BB27AA2723
:1017D0000E94FD0B0C94DC0C0E94CE0C38F00E9491
:1017E000D50C20F039F49F3F19F426F40C94CB0C5F
:1017F0000EF4E095E7FB0C94C50CE92F0E94ED0C6C
:1018000058F3BA17620773078407950720F079F435
:10181000A6F50C940F0D0EF4E0950B2EBA2FA02D0B
:101820000B01B90190010C01CA01A0011124FF278D
:10183000591B99F0593F50F4503E68F11A16F04088
:10184000A22F232F342F4427585FF3CF4695379587
:101850002795A795F0405395C9F77EF41F16BA0B4C
:10186000620B730B840BBAF09150A1F0FF0FBB1FFA
:10187000661F771F881FC2F70EC0BA0F621F731F43
:10188000841F48F4879577956795B795F7959E3FA0
:1018900008F0B0CF9395880F08F09927EE0F979531
:1018A000879508950E94590C6894B1110C94100DFD
:1018B00008950E94F50C88F09F5798F0B92F99274A
:1018C000B751B0F0E1F0660F771F881F991F1AF02B
:1018D000BA95C9F714C0B13091F00E940F0DB1E074
:1018E00008950C940F0D672F782F8827B85F39F073
:1018F000B93FCCF3869577956795B395D9F73EF4C4
:1019000090958095709561957F4F8F4F9F4F08956B
:10191000E89409C097FB3EF4909580957095619589
:101920007F4F8F4F9F4F9923A9F0F92F96E9BB273F
:101930009395F695879577956795B795F111F8CFBB
:10194000FAF4BB0F11F460FF1BC06F5F7F4F8F4F26
:101950009F4F16C0882311F096E911C0772321F01C
:101960009EE8872F762F05C0662371F096E8862FB4
:1019700070E060E02AF09A95660F771F881FDAF70B
:10198000880F9695879597F9089597F99F6780E84E
:1019900070E060E008959FEF80EC089500240A94C1
:1019A0001616170618060906089500240A9412163A
:1019B0001306140605060895092E0394000C11F46D
:1019C000882352F0BB0F40F4BF2B11F460FF04C01A
:1019D0006F5F7F4F8F4F9F4F089557FD9058440F73
:1019E000551F59F05F3F71F04795880F97FB991F7E
:1019F00061F09F3F79F0879508951216130614063B
:101A0000551FF2CF4695F1DF08C0161617061806C7
:101A1000991FF1CF86957105610508940895E894A2
:101A2000BB2766277727CB0197F908950E94290DD8
:101A30000C94DC0C0E94CE0C38F00E94D50C20F0E7
:101A4000952311F00C94C50C0C94CB0C11240C9420
:101A5000100D0E94ED0C70F3959FC1F3950F50E0AF
:101A6000551F629FF001729FBB27F00DB11D639F50
:101A7000AA27F00DB11DAA1F649F6627B00DA11DF6
:101A8000661F829F2227B00DA11D621F739FB00D9C
:101A9000A11D621F839FA00D611D221F749F33270C
:101AA000A00D611D231F849F600D211D822F762FA5
:101AB0006A2F11249F5750409AF0F1F088234AF082
:101AC000EE0FFF1FBB1F661F771F881F91505040EE
:101AD000A9F79E3F510580F00C94C50C0C94100D95
:101AE0005F3FE4F3983ED4F3869577956795B79575
:101AF000F795E7959F5FC1F7FE2B880F911D96958F
:101B0000879597F90895991B79E004C0991F961756
:101B100008F0961B881F7A95C9F78095089597FB62
:101B2000072E16F4009407D077FD09D00E94AC0D63
:101B300007FC05D03EF4909581959F4F08957095D0
:101B400061957F4F0895EE0FFF1F0024001C0BBE10
:101B50000790F691E02D0994AA1BBB1B51E107C029
:101B6000AA1FBB1FA617B70710F0A61BB70B881F2D
:101B7000991F5A95A9F780959095BC01CD010895BC
:041B8000F894FFCF07
:101B84000E0F1011121314313233343536373839FD
:101B94002A302354656D70203D202030302E3020B3
:101BA4004300000000006A032A03F9020000000059
:101BB4008E063E029A04990446616E3D31205369B3
:101BC40063616B6C696B3D3200596F6E6C656E645A
:101BD40069726D653D330066616E4B6170613D34C1
:101BE40000796F6E6C656E6469724B6170613D362D
:081BF400006D656E753D2A00CD
:020000021000EC
:10F000000C9472F80C9492F80C9492F80C9492F878
:10F010000C9492F80C9492F80C9492F80C9492F848
:10F020000C9492F80C9492F80C9492F80C9492F838
:10F030000C9492F80C9492F80C9492F80C9492F828
:10F040000C9492F80C9492F80C9492F80C9492F818
:10F050000C9492F80C9492F80C9492F80C9492F808
:10F060000C9492F80C9492F80C9492F80C9492F8F8
:10F070000C9492F80C9492F80C9492F80C9492F8E8
:10F080000C9492F80C9492F80C9492F80C9492F8D8
:10F090000C9492F80C9492F80C9492F80C9492F8C8
:10F0A0000C9492F80C9492F80C9492F80C9492F8B8
:10F0B0000C9492F80C9492F80C9492F80C9492F8A8
:10F0C0000C9492F80C9492F80C9492F80C9492F898
:10F0D0000C9492F80C9492F80C9492F80C9492F888
:10F0E0000C9492F811241FBECFEFD1E2DEBFCDBF4A
:10F0F00012E0A0E0B2E0EEEDFEEF01E00BBF02C0D7
:10F1000007900D92A833B107D9F71BBE13E0A8E30F
:10F11000B2E001C01D92A334B107E1F70E9412FAD8
:10F120000C946DFF0C9400F8982F959595959595F6
:10F130009595905D8F708A301CF1282F295A809107
:10F140003802813019F0823071F008958091C0004A
:10F1500085FFFCCF9093C6008091C00085FFFCCF57
:10F160002093C60008958091C80085FFFCCF90933E
:10F17000CE008091C80085FFFCCF2093CE0008957B
:10F18000282F205DDCCF982F80913802813019F034
:10F19000823041F008958091C00085FFFCCF9093AC
:10F1A000C60008958091C80085FFFCCF9093CE00E3
:10F1B0000895EF92FF920F931F9380913802813050
:10F1C00069F1823031F080E01F910F91FF90EF9054
:10F1D0000895EE24FF2487018091C80087FD17C0A1
:10F1E0000894E11CF11C011D111D81E4E81682E464
:10F1F000F8068FE0080780E0180770F3E0913A0204
:10F20000F0913B0209958091C80087FFE9CF80917A
:10F21000CE001F910F91FF90EF900895EE24FF24F0
:10F2200087018091C00087FD17C00894E11CF11C84
:10F23000011D111D81E4E81682E4F8068FE008073D
:10F2400080E0180770F3E0913A02F0913B020995D3
:10F250008091C00087FFE9CF8091C6001F910F9178
:10F26000FF90EF9008950E94D9F8982F809138026E
:10F27000813049F0823091F091366CF490330CF08B
:10F280009053892F08958091C00085FFFCCF909303
:10F29000C60091369CF39755892F08958091C80038
:10F2A00085FFFCCF9093CE00E7CF1F930E9433F9E8
:10F2B000182F0E9433F91295107F810F1F91089526
:10F2C000982F20913802992339F0213031F02230E3
:10F2D00061F091509923C9F708958091C00087FF8C
:10F2E000FCCF8091C6009150F5CF8091C80087FF78
:10F2F000FCCF8091CE009150EDCF1F93182F0E942C
:10F30000D9F8803249F0809139028F5F80933902B9
:10F31000853091F11F910895809138028130B9F0C4
:10F320008230C1F78091C80085FFFCCF84E18093D3
:10F33000CE008091C80085FFFCCF1093CE00809155
:10F34000C80085FFFCCF80E18093CE00E3CF8091A1
:10F35000C00085FFFCCF84E18093C6008091C0008F
:10F3600085FFFCCF1093C6008091C00085FFFCCFC5
:10F3700080E18093C600CECFE0913A02F0913B024B
:10F3800009951F9108950E94D9F8803241F080912B
:10F3900039028F5F80933902853029F10895809179
:10F3A0003802813089F08230C9F78091C80085FF2A
:10F3B000FCCF84E18093CE008091C80085FFFCCF14
:10F3C00080E18093CE0008958091C00085FFFCCF3E
:10F3D00084E18093C6008091C00085FFFCCF80E16E
:10F3E0008093C6000895E0913A02F0913B0209959E
:10F3F000089540E951E08823A1F02F9A28EE33E0E8
:10F40000FA013197F1F721503040D1F72F9828EECB
:10F4100033E0FA013197F1F721503040D1F78150B4
:10F4200061F708952F923F924F925F926F927F9271
:10F430008F929F92AF92BF92CF92DF92EF92FF9204
:10F440000F931F93CF93DF93000081E080933802E6
:10F4500080E18093C4001092C5001092C00086E045
:10F460008093C20088E18093C1006898709A279ABF
:10F4700081E00E94F9F9E4E1EE2E7EE1D72E67E902
:10F48000C62E53E0B52E40E1A42E9924939431E486
:10F49000832E26E5722E92E5692E80E2582E09E42D
:10F4A000402E13E5312EB0E52B2E0E94D9F8803383
:10F4B000C9F1813309F452C0803409F4C8C08134E1
:10F4C00009F4EAC0823489F1853409F4CAC0803570
:10F4D00049F1823539F1813529F1853509F4ECC0DE
:10F4E000863509F409C1843609F428C1843709F442
:10F4F000ABC1853709F473C2863709F4D9C08132AC
:10F5000009F4B7C2809139028F5F80933902853048
:10F5100061F6E0913A02F0913B0209950E94D9F818
:10F52000803339F60E94C3F9C0CF2091380293E1AD
:10F5300005C0223061F09923A9F391502130C9F719
:10F540008091C00087FFFCCF8091C600F4CF8091EE
:10F55000C80087FFFCCF8091CE00EDCF0E94D9F884
:10F56000803281F6809138028130D1F1823009F009
:10F570009CCF8091C80085FFFCCFE092CE008091A7
:10F58000C80085FFFCCF8092CE008091C80085FF27
:10F59000FCCF7092CE008091C80085FFFCCF6092B6
:10F5A000CE008091C80085FFFCCF5092CE008091A4
:10F5B000C80085FFFCCF4092CE008091C80085FF37
:10F5C000FCCF3092CE008091C80085FFFCCF209206
:10F5D000CE008091C80085FFFCCFA092CE0065CF01
:10F5E0008091C00085FFFCCFE092C6008091C000F2
:10F5F00085FFFCCF8092C6008091C00085FFFCCFC4
:10F600007092C6008091C00085FFFCCF6092C6005A
:10F610008091C00085FFFCCF5092C6008091C00051
:10F6200085FFFCCF4092C6008091C00085FFFCCFD3
:10F630003092C6008091C00085FFFCCF2092C600AA
:10F640008091C00085FFFCCFA092C6002ECF0E9403
:10F65000D9F8863808F466CF0E94D9F80E94C3F919
:10F6600024CF2091380294E0213041F0223069F01B
:10F67000992309F457CF91502130C1F78091C000F0
:10F6800087FFFCCF8091C600F3CF8091C80087FF31
:10F69000FCCF8091CE00ECCF0E94D9F8803841F1A8
:10F6A000813809F447C0823809F4CAC08839E1F0CA
:10F6B00080E00E947DF9F9CE0E94D9F880933C0247
:10F6C0000E94D9F880933D020E94C3F9EECE0E94B9
:10F6D000D9F80E94D9F8182F0E94D9F8112309F4FB
:10F6E0007EC2113009F40AC283E00E947DF9DDCEAA
:10F6F00082E00E947DF9D9CE0E94D9F8803339F397
:10F700002091380292E0213039F0223061F09923C3
:10F7100079F291502130C9F78091C00087FFFCCF6A
:10F720008091C600F4CF8091C80087FFFCCF809104
:10F73000CE00EDCF81E00E947DF9B7CE0E94D9F8CE
:10F7400080933F030E94D9F880933E038091420347
:10F750008E7F809342030E94D9F8853409F4B3C1A7
:10F7600080913E0390913F03892B89F000E010E0E7
:10F770000E94D9F8F801E25CFD4F80830F5F1F4FB4
:10F7800080913E0390913F030817190788F30E9468
:10F79000D9F8803209F0B6CE8091420380FFB2C121
:10F7A00040913C0250913D02440F551F50933D0241
:10F7B00040933C0260913E0370913F0361157105D7
:10F7C000F1F080E090E09A01280F391FFC01E25C23
:10F7D000FD4FE081F999FECF1FBA32BD21BDE0BDDA
:10F7E0000FB6F894FA9AF99A0FBE01968617970702
:10F7F00050F3460F571F50933D0240933C028091B7
:10F800003802813081F0823009F04FCE8091C800FB
:10F8100085FFFCCFE092CE008091C80085FFFCCF31
:10F82000A092CE0042CE8091C00085FFFCCFE09236
:10F83000C6008091C00085FFFCCFA092C60035CEE7
:10F8400080E10E947DF931CE0E94D9F880933F0378
:10F850000E94D9F880933E0320913C0230913D02F2
:10F8600037FD46C1809142038D7F80934203220F72
:10F87000331F30933D0220933C020E94D9F8853417
:10F8800009F430C1809142038E7F809342030E942D
:10F89000D9F8803209F009CE60913802613009F45C
:10F8A0006FC0623009F473C000913E0310913F03B2
:10F8B0000115110509F440C080914203782F717041
:10F8C000F82EF69481E0F82240913C0250913D02DE
:10F8D00020E030E013C0FF2009F060C0FA019491ED
:10F8E000613009F43BC0623009F441C0CA0101969D
:10F8F0002F5F3F4FAC0120173107D0F4772359F326
:10F90000F999FECF52BD41BDF89A90B56130F9F03A
:10F91000623061F78091C80085FFFCCF9093CE00E4
:10F92000CA0101962F5F3F4FAC012017310730F31A
:10F9300090933D0280933C02613009F4CAC062306A
:10F9400009F0B3CD8091C80085FFFCCF46CE8091F1
:10F95000C00085FFFCCF9093C600C8CF8091C00047
:10F9600085FDF9CF8091C00085FFF8CFF4CF80915D
:10F97000C80085FDD3CF8091C80085FFF8CFCECFDA
:10F980008091C00085FFFCCFE092C6008DCF8091B2
:10F99000C80085FFFCCFE092CE0086CFCA01A0E070
:10F9A000B0E080509040AF4FBF4FABBFFC0197918C
:10F9B000613061F0623009F099CF8091C80085FD17
:10F9C000ADCF8091C80085FFF8CFA8CF8091C0004F
:10F9D00085FDC1CF8091C00085FFF8CFBCCF0E94CC
:10F9E000D9F8803209F08ECD80913802813011F142
:10F9F000823009F05ACD8091C80085FFFCCFE0929B
:10FA0000CE008091C80085FFFCCFD092CE008091BF
:10FA1000C80085FFFCCFC092CE008091C80085FF52
:10FA2000FCCFB092CE008091C80085FFFCCFA092A1
:10FA3000CE003BCD8091C00085FFFCCFE092C60098
:10FA40008091C00085FFFCCFD092C6008091C0009D
:10FA500085FFFCCFC092C6008091C00085FFFCCF1F
:10FA6000B092C6008091C00085FFFCCFA092C60076
:10FA70001CCD0E94D9F8813209F017CD0E94D9F827
:10FA8000813209F012CD279A2F98109240032091CD
:10FA90003802E1E491E00EC0223009F4A4C0909352
:10FAA0004003E92FF0E0E050FE4FE0819F5FEE233E
:10FAB00009F4A0C0213081F78091C00085FFFCCF00
:10FAC000E093C600ECCF80914203816080934203B3
:10FAD00047CE8091C00085FDB7CD8091C00085FFE5
:10FAE000F8CFB2CD80914203816080934203CFCEA4
:10FAF00080914203826080934203B9CE87E90E94DD
:10FB00007DF9D3CC80913D028823880F880B892111
:10FB1000809341038BBF80913C0290913D02880FFE
:10FB2000991F90933D0280933C0280913E0380FF99
:10FB300009C080913E0390913F03019690933F034B
:10FB400080933E03F894F999FECF1127E0913C028F
:10FB5000F0913D02CEE3D2E080913E0390913F03CD
:10FB6000103091F40091570001700130D9F303E097
:10FB700000935700E8950091570001700130D9F3C8
:10FB800001E100935700E895099019900091570002
:10FB900001700130D9F301E000935700E895139507
:10FBA000103898F011270091570001700130D9F3F7
:10FBB00005E000935700E89500915700017001306F
:10FBC000D9F301E100935700E8953296029709F0C6
:10FBD000C7CF103011F00296E5CF112410CE8EE180
:10FBE0000E947DF962CC8091C80085FFFCCFE09334
:10FBF000CE0055CF7AE0B72E6DE0A62E5AE3952EB3
:10FC000040E2842E3DE3732E90E3692E81E3582E6B
:10FC1000213009F442C0223009F45FC00E94D9F8B3
:10FC2000982F20913802213089F1223009F44EC0FA
:10FC3000943709F46BC0923709F405C1973709F47A
:10FC40007BC0953799F0923609F4BDC09A3601F71A
:10FC5000E0913A02F0913B02099520913802D8CF09
:10FC60008091C00085FFFCCF9093C6000E94D9F818
:10FC7000982F80913802813099F38230B9F78091C2
:10FC8000C80085FFFCCF9093CE00F0CF8091C000DC
:10FC900085FFFCCF9093C600CBCF8091C00085FF3D
:10FCA000FCCFB092C6008091C00085FFFCCFA0922F
:10FCB000C6008091C00085FFFCCF9092C600809165
:10FCC000C00085FFFCCF8092C600A8CF8091C800FD
:10FCD00085FFFCCF9093CE00ABCF8091C80085FF0D
:10FCE000FCCFB092CE008091C80085FFFCCFA092DF
:10FCF000CE008091C80085FFFCCF9092CE0080910D
:10FD0000C80085FFFCCF8092CE0088CF1F9947C0E6
:10FD10002F9A213051F0223009F07ACF8091C8001B
:10FD200085FFFCCF6092CE0073CF8091C00085FF2D
:10FD3000FCCF6092C6006CCF0E94D9F8982F8091BA
:10FD400038028130F1F0823009F4ABC00E9455F9DD
:10FD5000082F0E9455F9182F0E94D9F8982F8091EA
:10FD600038028130A9F0823009F4A2C00E9455F90E
:10FD7000D02ECC24F601E10FF11D808320913802B2
:10FD800047CF8091C00085FFFCCF9093C600DECFA7
:10FD90008091C00085FFFCCF9093C600E7CF2F98DD
:10FDA000213051F0223009F033CF8091C80085FF17
:10FDB000FCCF5092CE002CCF8091C00085FFFCCFAD
:10FDC0005092C60025CF213041F1223081F080E8E9
:10FDD00085BF109274001092750080E091E1FC01E3
:10FDE000819180E091E13097D1F3CF01F8CF8091FC
:10FDF000C80085FFFCCF82E68093CE008091C800CA
:10FE000085FFFCCF85E78093CE008091C80085FFF9
:10FE1000FCCF83E78093CE00DACF8091C00085FFCE
:10FE2000FCCF82E68093C6008091C00085FFFCCFA6
:10FE300085E78093C6008091C00085FFFCCF83E7F3
:10FE40008093C600C4CF0E94D9F8982F80913802C1
:10FE50008130C9F08230D1F10E9455F9182F0E94EB
:10FE600055F9982F809138028130A1F0823039F114
:10FE7000F12EEE24F701E90FF11D80810E9494F824
:10FE800020913802C5CE8091C00085FFFCCF9093B1
:10FE9000C600E2CF8091C00085FFFCCF7092C60003
:10FEA000E7CF8091C80085FFFCCF9093CE004ECF66
:10FEB0008091C80085FFFCCF9093CE0057CF8091F2
:10FEC000C80085FFFCCF7092CE00D2CF8091C800D1
:0EFED00085FFFCCF9093CE00BFCFF894FFCFFC
:10FEDE0041546D656761424F4F54202F204172642B
:10FEEE0075696E6F204D656761202D20284329208E
:10FEFE0041726475696E6F204C4C43202D20303951
:08FF0E00303933300A0D008088
:040000031000F000F9
:00000001FF
